:100000000C945E000C9486000C9486000C94860080
:100010000C9486000C9486000C9486000C94860048
:100020000C9486000C9486000C9486000C94860038
:100030000C9486000C9486000C9486000C94860028
:100040000C94F6020C9486000C94C4020C949E024C
:100050000C9486000C9486000C9486000C94860008
:100060000C9486000C948600000000080002010039
:100070000003040700000000000000000000000072
:10008000250028002B0000000000240027002A0083
:10009000040404040404040402020202020203032E
:1000A0000303030301020408102040800102040836
:1000B00010200102040810204003B70511241FBEC0
:1000C000CFEFD8E0DEBFCDBF21E0ACE3B1E001C0AF
:1000D0001D92AE3EB207E1F711E0A0E0B1E0EAE028
:1000E000F0E102C005900D92AC33B107D9F710E0F2
:1000F000CDE5D0E004C02197FE010E94F705CC3584
:10010000D107C9F70E94B4030C94F8070C940000BF
:1001100090E0FC01EC55FF4F249180579F4FFC016C
:100120008491882399F090E0880F991FFC01EA5789
:10013000FF4FA591B491FC01E458FF4F8591949134
:100140008FB7F894EC91E22BEC938FBF0895AF92A8
:10015000BF92CF92DF92EF92FF920F931F93CF93B4
:10016000DF936C017B018B01040F151FEB015E0116
:10017000AE18BF08C017D10759F06991D601ED91AB
:10018000FC910190F081E02DC6010995892B79F74A
:10019000C501DF91CF911F910F91FF90EF90DF90FC
:1001A000CF90BF90AF900895FC01538D448D252FC3
:1001B00030E0842F90E0821B930B541710F0CF9601
:1001C000089501970895FC01918D828D981761F033
:1001D000A28DAE0FBF2FB11D5D968C91928D9F5F4A
:1001E0009F73928F90E008958FEF9FEF0895FC0129
:1001F000918D828D981731F0828DE80FF11D858DDC
:1002000090E008958FEF9FEF0895FC01918D228D6E
:10021000892F90E0805C9F4F821B91098F739927F3
:10022000089587E491E00E94050121E0892B09F4FB
:1002300020E0822F089580E090E0892B29F00E9431
:10024000110181110C9400000895FC01A48DA80FE8
:10025000B92FB11DA35ABF4F2C91848D90E0019608
:100260008F739927848FA689B7892C93A089B18928
:100270008C91837080648C93938D848D981306C0C9
:100280000288F389E02D80818F7D80830895EF922D
:10029000FF920F931F93CF93DF93EC0181E0888F40
:1002A0009B8D8C8D98131AC0E889F989808185FF10
:1002B00015C09FB7F894EE89FF896083E889F989B2
:1002C00080818370806480839FBF81E090E0DF91B4
:1002D000CF911F910F91FF90EF900895F62E0B8D07
:1002E00010E00F5F1F4F0F731127E02E8C8D8E11C2
:1002F0000CC00FB607FCFACFE889F989808185FF29
:10030000F5CFCE010E942501F1CFEB8DEC0FFD2F33
:10031000F11DE35AFF4FF0829FB7F8940B8FEA89E3
:10032000FB8980818062CFCFCF93DF93EC01888DF2
:100330008823B9F0AA89BB89E889F9898C9185FD60
:1003400003C0808186FD0DC00FB607FCF7CF8C91EE
:1003500085FFF2CF808185FFEDCFCE010E94250180
:10036000E9CFDF91CF91089590E0FC01E859FF4F6C
:100370002491FC01EC55FF4F3491FC01E057FF4FF5
:10038000E491EE23C9F0222339F0233001F1A8F4DF
:10039000213019F1223029F1F0E0EE0FFF1FE4586F
:1003A000FF4FA591B4918FB7F894EC91611126C0DD
:1003B00030953E233C938FBF08952730A9F0283015
:1003C000C9F0243049F7809180008F7D03C080916F
:1003D00080008F7780938000DFCF84B58F7784BDD6
:1003E000DBCF84B58F7DFBCF8091B0008F7780937A
:1003F000B000D2CF8091B0008F7DF9CF3E2BDACF05
:100400003FB7F8948091410190914201A09143013E
:10041000B091440126B5A89B05C02F3F19F0019665
:10042000A11DB11D3FBFBA2FA92F982F8827BC014E
:10043000CD01620F711D811D911D42E0660F771F76
:10044000881F991F4A95D1F708958F929F92AF9276
:10045000BF92CF92DF92EF92FF924B015C010E941C
:1004600000026B017C010E9400026C197D098E095B
:100470009F09683E734081059105A8F321E0821A27
:100480009108A108B10888EEC80E83E0D81EE11CCF
:10049000F11C81149104A104B10429F7FF90EF909D
:1004A000DF90CF90BF90AF909F908F900895CF93A3
:1004B000DF93EC018091E4019091E501009759F000
:1004C0002091E6013091E7012C173D0720F081E0F3
:1004D000DF91CF910895BE016F5F7F4F0E94220789
:1004E000009789F09093E5018093E401D093E701B0
:1004F000C093E6012091E8013091E901232B39F7FF
:10050000FC011082E4CF80E0E3CF2091E80130913C
:10051000E901232B39F421E0FC018081882361F07B
:1005200020E00AC0BC018091E4019091E5010E94A5
:10053000E80721E0892BA1F7822F08951F920F92DF
:100540000FB60F9211242F933F934F935F936F93A6
:100550007F938F939F93AF93BF93EF93FF9387E422
:1005600091E00E942501FF91EF91BF91AF919F9182
:100570008F917F916F915F914F913F912F910F904C
:100580000FBE0F901F9018951F920F920FB60F92EB
:1005900011242F938F939F93EF93FF93E091570133
:1005A000F09158018081E0915D01F0915E0182FD42
:1005B0001BC09081809160018F5F8F7320916101DA
:1005C000821741F0E0916001F0E0E95BFE4F958F0A
:1005D00080936001FF91EF919F918F912F910F90E8
:1005E0000FBE0F901F9018958081F4CF1F920F922D
:1005F0000FB60F9211242F933F938F939F93AF9336
:10060000BF9380913D0190913E01A0913F01B09137
:10061000400130913C0123E0230F2D3758F501961E
:10062000A11DB11D20933C0180933D0190933E019B
:10063000A0933F01B093400180914101909142010C
:10064000A0914301B09144010196A11DB11D809379
:10065000410190934201A0934301B0934401BF91A3
:10066000AF919F918F913F912F910F900FBE0F905F
:100670001F90189526E8230F0296A11DB11DD2CF19
:1006800010924A011092490188EE93E0A0E0B0E098
:1006900080934B0190934C01A0934D01B0934E0178
:1006A0008AE091E0909348018093470185EC90E0C7
:1006B000909354018093530184EC90E09093560101
:1006C0008093550180EC90E09093580180935701FE
:1006D00081EC90E090935A018093590182EC90E074
:1006E00090935C0180935B0186EC90E090935E01B7
:1006F00080935D011092600110926101109262017D
:10070000109263011092E5011092E4011092E7014A
:100710001092E6011092E9011092E80190E080E069
:100720000E9457022091E4013091E501811113C02C
:100730002115310519F0C9010E9499061092E501B1
:100740001092E4011092E9011092E8011092E70181
:100750001092E60108951092E9011092E8016AE111
:1007600071E0C9010C94F107CF93DF9300D0CDB7AE
:10077000DEB7789484B5826084BD84B5816084BD21
:1007800085B5826085BD85B5816085BD80916E002F
:10079000816080936E001092810080918100826060
:1007A000809381008091810081608093810080919D
:1007B00080008160809380008091B100846080938C
:1007C000B1008091B00081608093B00080917A0088
:1007D000846080937A0080917A00826080937A00AE
:1007E00080917A00816080937A0080917A0080689D
:1007F00080937A001092C100E0915701F091580166
:1008000082E08083E0915301F09154011082E091E5
:100810005501F09156018FEC808310925F01E091B9
:100820005B01F0915C0186E08083E0915901F091D9
:100830005A01808180618083E0915901F0915A01D1
:10084000808188608083E0915901F0915A01808114
:1008500080688083E0915901F0915A0180818F7DF9
:10086000808382E00E94880083E00E94880084E008
:100870000E94880085E00E94880080E0E82E80E0E9
:10088000F82ECC24C394D12C87E491E00E9405017A
:10089000892B59F163E070E080E090E00E9425022E
:1008A00087E491E00E94E30089831A820091E801C5
:1008B0001091E9010F5F1F4FC8010E945702882362
:1008C00019F32091E4013091E5018091E8019091C4
:1008D000E901BE016F5F7F4F820F931F0E94F107F6
:1008E0001093E9010093E801CFCF4091E8015091C6
:1008F000E9014115510509F4C2C06091E40170910C
:10090000E50187E491E00E94A70042E050E068E141
:1009100071E087E491E00E94A7008BE191E00E94E2
:1009200085028823A1F061E082E00E94B40160E0CA
:1009300083E00E94B40161E084E00E94B40160E0C1
:1009400085E00E94B401D0924601C092450183E245
:1009500091E00E9485028823B1F060E082E00E946D
:10096000B40161E083E00E94B40160E084E00E9491
:10097000B40161E085E00E94B40182E090E09093D0
:100980004601809345018CE291E00E948502882314
:1009900069F1809145019091460161E0029709F06B
:1009A00096C082E00E94B40160E083E00E94B4013E
:1009B00060E084E00E94B40160E085E00E94B40140
:1009C00068EE73E080E090E00E94250260E082E043
:1009D0000E94B40161E083E00E94B40160E084E021
:1009E0000E94B40161E085E00E94B40182E391E0DD
:1009F0000E948502882369F180914501909146010A
:100A000060E0029709F086C082E00E94B40160E0D5
:100A100083E00E94B40161E084E00E94B40160E0E0
:100A200085E00E94B40168EE73E080E090E00E94EF
:100A3000250260E082E00E94B40161E083E00E9450
:100A4000B40160E084E00E94B40161E085E00E94AE
:100A5000B40187E391E00E948502882381F060E081
:100A600082E00E94B40160E083E00E94B40160E093
:100A700084E00E94B40160E085E00E94B40190E04F
:100A800080E00E9457022091E4013091E50181113C
:100A900064C02115310519F0C9010E949906109210
:100AA000E5011092E4011092E9011092E801109220
:100AB000E7011092E601E114F10409F4E5CE0E9489
:100AC0001101882309F4E0CE0E940000DDCE82E00F
:100AD0000E94B40160E083E00E94B40160E084E021
:100AE0000E94B40160E085E00E94B40168EE73E00A
:100AF00080E090E00E94250261E082E00E94B40163
:100B000060E083E00E94B40161E084E00E94B401EF
:100B100060E069CF82E00E94B40160E083E00E945F
:100B2000B40161E084E00E94B40160E085E00E94CD
:100B3000B40168EE73E080E090E00E94250261E07D
:100B400082E00E94B40160E083E00E94B40161E0B1
:100B500084E00E94B40160E079CF1092E901109224
:100B6000E8016AE171E0C9010E94F107A4CF809118
:100B7000E4019091E501009711F00C949906089515
:100B80002F923F924F925F926F927F928F929F929D
:100B9000AF92BF92CF92DF92EF92FF920F931F938B
:100BA000CF93DF93CDB7DEB7CA1BDB0B0FB6F8943C
:100BB000DEBF0FBECDBF09942A88398848885F847C
:100BC0006E847D848C849B84AA84B984C884DF80ED
:100BD000EE80FD800C811B81AA81B981CE0FD11DD1
:100BE0000FB6F894DEBF0FBECDBFED010895EE0F36
:100BF000FF1F0590F491E02D09940F931F93CF935D
:100C0000DF938230910510F482E090E0E091EC01F6
:100C1000F091ED0130E020E0B0E0A0E0309799F4F1
:100C20002115310509F44AC0281B390B2430310540
:100C3000D8F58A819B816115710589F1FB01938348
:100C40008283FE0111C040815181028113814817C6
:100C50005907E0F04817590799F4109761F0129678
:100C60000C93129713961C933296CF01DF91CF917C
:100C70001F910F9108950093EC011093ED01F4CFB3
:100C80002115310551F04217530738F0A901DB0156
:100C90009A01BD01DF01F801C1CFEF01F9CF9093B7
:100CA000ED018093EC01CDCFFE01E20FF31F8193A4
:100CB00091932250310939832883D7CF2091EA01BB
:100CC0003091EB01232B41F420910201309103017B
:100CD0003093EB012093EA01209100013091010152
:100CE0002115310541F42DB73EB7409104015091D3
:100CF0000501241B350BE091EA01F091EB01E217AD
:100D0000F307A0F42E1B3F0B2817390778F0AC012E
:100D10004E5F5F4F2417350748F04E0F5F1F50930B
:100D2000EB014093EA01819391939FCFF0E0E0E0E3
:100D30009CCFCF93DF930097E9F0FC0132971382A9
:100D40001282A091EC01B091ED01ED0130E020E0C4
:100D50001097A1F420813181820F931F2091EA0125
:100D60003091EB012817390709F061C0F093EB01CE
:100D7000E093EA01DF91CF910895EA01CE17DF07F2
:100D8000E8F54A815B819E0141155105B1F7E90102
:100D9000FB83EA8349915991C40FD51FEC17FD07D6
:100DA00061F4808191810296840F951FE9019983F6
:100DB0008883828193819B838A83F0E0E0E01296AE
:100DC0008D919C9113970097B9F52D913C911197B6
:100DD000CD010296820F931F2091EA013091EB0121
:100DE0002817390739F6309751F51092ED01109216
:100DF000EC01B093EB01A093EA01BCCFD383C28393
:100E000040815181840F951FC817D90761F44E5F47
:100E10005F4F88819981480F591F518340838A8190
:100E20009B81938382832115310509F0B0CFF09324
:100E3000ED01E093EC019ECFFD01DC01C0CF1382F8
:100E40001282D7CFB0E0A0E0E8E2F7E00C94C20550
:100E50008C01009751F4CB010E94FD058C01C80163
:100E6000CDB7DEB7E0E10C94DE05FC01E60FF71F1D
:100E70009C0122503109E217F30708F49DC0D90103
:100E8000CD91DC911197C617D70798F0C530D105E1
:100E900030F3CE0104978617970708F3C61BD70BCC
:100EA0002297C193D1936D937C93CF010E949906B1
:100EB000D6CF5B01AC1ABD0A4C018C0E9D1EA091D1
:100EC000EC01B091ED01512C412CF12CE12C10974B
:100ED00031F58091EA019091EB018815990509F0AF
:100EE0005CC04616570608F058C0809100019091EA
:100EF0000101009741F48DB79EB7409104015091D4
:100F00000501841B950BE817F90708F055C0F0930D
:100F1000EB01E093EA01F90171836083A0CF8D9129
:100F20009C91119712966C90129713967C90139740
:100F3000A815B90559F56C0142E0C40ED11CCA14BC
:100F4000DB0420F1AC014A195B09DA01129615970E
:100F500080F06282738251834083D9016D937C93C8
:100F6000E114F10471F0D7011396FC93EE931297FC
:100F700076CF22968C0F9D1FF90191838083F30118
:100F8000EFCFF093ED01E093EC0169CF48165906DD
:100F900008F42C017D01D3019ACFCB010E94FD05FD
:100FA0007C01009749F0AE01B8010E94DF07C8013B
:100FB0000E949906870153CF10E000E050CFFB015B
:100FC000DC0102C001900D9241505040D8F70895C5
:100FD000FB01DC018D91019080190110D9F3990B6F
:100FE0000895FB01DC0101900D920020E1F70895C6
:100FF00010E0CDE5D0E004C0FE010E94F705219687
:0A100000CE35D107C9F7F894FFCFF1
:10100A000000EE018000000000004701A700D400A4
:10101A0094010501E300F7000D0A00666F7277611B
:10102A007264006261636B776172640072696768F7
:0C103A0074006C6566740073746F7000C5
:00000001FF
